:0B0B5100D714CD5D1E5BDB15DF5F00DD
:100B2100010C01010A00010D05010996010B0001EB
:020B31000800BA
:100B0300D3EF9400EE940040147D6E7C00ED1D70D5
:0D0B1300011CED4C70F7EF1F70E61E80E333
:010B200022B2
:10091B00E50C640160030209ADF510C3E510940307
:10092B007480948040030209B6E5101460241460AF
:10093B004124027068D2A4C2A6E50A2414FFE43352
:10094B00FE7C007D64120A9874512FF582740B3E65
:10095B00803BD2A6C2A5E50A2414FFE433FE7C003B
:10096B007D64120A43ED75F00A84900B51936480F9
:10097B00801FD2A5C2A4E50A2414FFE433FE7C0039
:10098B007D0A120A9874512DF582740B3CF583E4A1
:10099B0093F5807F057E00120B03E4F580051002B2
:0C09AB000926C2A4C2A5C2A6E4F5802261
:1008000030A01C30A11920A3047F0180027F0020AA
:10081000A2047E0180027E00EE4F700302091A7F5F
:10082000647E00120B0320A05AE4F50FF50EC3E519
:100830000A94A0748094805035E50D250AF50AF5D8
:100840009020A03A12091BE50B601ED3E508940026
:10085000748094804013E50A94A0748094805009B9
:10086000E508250AF50AE4F508850A9080D3750A9B
:10087000A07590A0D2A720A00512091B80F8E4F56E
:100880000BC2A720A15AE4F50FF50ED3E50A940098
:10089000748094804036E50A950DF50AF59020A104
:1008A0003A12091BE50B601FD3E50894007480948D
:1008B000804014D3E50A9400748094804009E50ACE
:1008C0009508F50AE4F508850A9080D2E4F50AF562
:1008D00090D2A720A10512091B80F8E4F50BC2A74E
:1008E00020A22EC3E50A940A74809480401474F602
:1008F000250AF50AF5907F147E00120B0312091BDE
:1009000080E1E4F50AF590800320A20512091B801E
:0B091000F820A306630CFF30A3FD22BB
:100B3400758901758CD8758AF0D2A9D2AFD28C226E
:0D0B4400120B34C2A712091B12080080F822
:03000B00020ACE18
:100ACE00C0E0C0D0758CD8758AF0050EE50EC395C2
:100ADE00094006750E00750B01E50B6002050FC38C
:100AEE00E50F9432748094804006750F00850D08D2
:050AFE00D0D0D0E03271
:030000000209B73B
:0C09B700787FE4F6D8FD7581100209FE7F
:100A4300BC000BBE0029EF8DF084FFADF022E4CC97
:100A5300F875F008EF2FFFEE33FEEC33FCEE9DEC60
:100A6300984005FCEE9DFE0FD5F0E9E4CEFD22EDA6
:100A7300F8F5F0EE8420D21CFEADF075F008EF2FF0
:100A8300FFED33FD4007985006D5F0F222C398FDE1
:050A93000FD5F0EA227E
:100A9800C2D5EC30E709B2D5E4C39DFDE49CFCEE79
:100AA80030E715B2D5E4C39FFFE49EFE120A43C3A4
:100AB800E49DFDE49CFC8003120A4330D507C3E49F
:060AC8009FFFE49EFE22E8
:1009C300020B44E493A3F8E493A34003F68001F2FB
:1009D30008DFF48029E493A3F85407240CC8C33335
:1009E300C4540F4420C8834004F456800146F6DF04
:1009F300E4800B0102040810204080900B21E47E68
:100A0300019360BCA3FF543F30E509541FFEE493F8
:100A1300A360010ECF54C025E060A840B8E493A3BF
:100A2300FAE493A3F8E493A3C8C582C8CAC583CAEA
:100A3300F0A3C8C582C8CAC583CADFE9DEE780BEA2
:010B330000C1
:00000001FF
